{
  "_format": "hh-sol-artifact-1",
  "contractName": "Custodian",
  "sourceName": "contracts/Custodian.sol",
  "abi": [
    {
      "inputs": [
        {
          "internalType": "address",
          "name": "_token0",
          "type": "address"
        },
        {
          "internalType": "address",
          "name": "_token1",
          "type": "address"
        },
        {
          "internalType": "uint24",
          "name": "_poolFee",
          "type": "uint24"
        }
      ],
      "stateMutability": "nonpayable",
      "type": "constructor"
    },
    {
      "inputs": [],
      "name": "collectAllFees",
      "outputs": [
        {
          "internalType": "uint256",
          "name": "amount0",
          "type": "uint256"
        },
        {
          "internalType": "uint256",
          "name": "amount1",
          "type": "uint256"
        }
      ],
      "stateMutability": "nonpayable",
      "type": "function"
    },
    {
      "inputs": [
        {
          "internalType": "uint128",
          "name": "liquidity",
          "type": "uint128"
        }
      ],
      "name": "decreaseLiquidity",
      "outputs": [
        {
          "internalType": "uint256",
          "name": "amount0",
          "type": "uint256"
        },
        {
          "internalType": "uint256",
          "name": "amount1",
          "type": "uint256"
        }
      ],
      "stateMutability": "nonpayable",
      "type": "function"
    },
    {
      "inputs": [
        {
          "internalType": "uint256",
          "name": "",
          "type": "uint256"
        }
      ],
      "name": "deposits",
      "outputs": [
        {
          "internalType": "address",
          "name": "owner",
          "type": "address"
        },
        {
          "internalType": "uint128",
          "name": "liquidity",
          "type": "uint128"
        },
        {
          "internalType": "address",
          "name": "token0",
          "type": "address"
        },
        {
          "internalType": "address",
          "name": "token1",
          "type": "address"
        }
      ],
      "stateMutability": "view",
      "type": "function"
    },
    {
      "inputs": [
        {
          "internalType": "uint256",
          "name": "_tokenId",
          "type": "uint256"
        }
      ],
      "name": "getLiquidity",
      "outputs": [
        {
          "internalType": "uint128",
          "name": "",
          "type": "uint128"
        }
      ],
      "stateMutability": "view",
      "type": "function"
    },
    {
      "inputs": [
        {
          "internalType": "uint256",
          "name": "amountAdd0",
          "type": "uint256"
        },
        {
          "internalType": "uint256",
          "name": "amountAdd1",
          "type": "uint256"
        }
      ],
      "name": "increaseLiquidity",
      "outputs": [
        {
          "internalType": "uint128",
          "name": "liquidity",
          "type": "uint128"
        },
        {
          "internalType": "uint256",
          "name": "amount0",
          "type": "uint256"
        },
        {
          "internalType": "uint256",
          "name": "amount1",
          "type": "uint256"
        }
      ],
      "stateMutability": "nonpayable",
      "type": "function"
    },
    {
      "inputs": [
        {
          "internalType": "int24",
          "name": "tickLower",
          "type": "int24"
        },
        {
          "internalType": "int24",
          "name": "tickUpper",
          "type": "int24"
        },
        {
          "internalType": "uint256",
          "name": "amount0ToMint",
          "type": "uint256"
        },
        {
          "internalType": "uint256",
          "name": "amount1ToMint",
          "type": "uint256"
        }
      ],
      "name": "mintNewPosition",
      "outputs": [
        {
          "internalType": "uint256",
          "name": "_tokenId",
          "type": "uint256"
        },
        {
          "internalType": "uint128",
          "name": "liquidity",
          "type": "uint128"
        },
        {
          "internalType": "uint256",
          "name": "amount0",
          "type": "uint256"
        },
        {
          "internalType": "uint256",
          "name": "amount1",
          "type": "uint256"
        }
      ],
      "stateMutability": "nonpayable",
      "type": "function"
    },
    {
      "inputs": [],
      "name": "nonfungiblePositionManager",
      "outputs": [
        {
          "internalType": "contract INonfungiblePositionManager",
          "name": "",
          "type": "address"
        }
      ],
      "stateMutability": "view",
      "type": "function"
    },
    {
      "inputs": [
        {
          "internalType": "address",
          "name": "operator",
          "type": "address"
        },
        {
          "internalType": "address",
          "name": "",
          "type": "address"
        },
        {
          "internalType": "uint256",
          "name": "_tokenId",
          "type": "uint256"
        },
        {
          "internalType": "bytes",
          "name": "",
          "type": "bytes"
        }
      ],
      "name": "onERC721Received",
      "outputs": [
        {
          "internalType": "bytes4",
          "name": "",
          "type": "bytes4"
        }
      ],
      "stateMutability": "nonpayable",
      "type": "function"
    },
    {
      "inputs": [],
      "name": "poolFee",
      "outputs": [
        {
          "internalType": "uint24",
          "name": "",
          "type": "uint24"
        }
      ],
      "stateMutability": "view",
      "type": "function"
    },
    {
      "inputs": [],
      "name": "token0",
      "outputs": [
        {
          "internalType": "address",
          "name": "",
          "type": "address"
        }
      ],
      "stateMutability": "view",
      "type": "function"
    },
    {
      "inputs": [],
      "name": "token1",
      "outputs": [
        {
          "internalType": "address",
          "name": "",
          "type": "address"
        }
      ],
      "stateMutability": "view",
      "type": "function"
    },
    {
      "inputs": [],
      "name": "tokenId",
      "outputs": [
        {
          "internalType": "uint256",
          "name": "",
          "type": "uint256"
        }
      ],
      "stateMutability": "view",
      "type": "function"
    }
  ],
  "bytecode": "0x60e0604052600080546001600160a01b03191673c36442b4a4522e871399cd717abdd847ab11fe881790553480156200003757600080fd5b506040516200177a3803806200177a8339810160408190526200005a91620000a9565b606092831b6001600160601b03199081166080529190921b1660a05260e81b6001600160e81b03191660c052620000fc565b80516001600160a01b0381168114620000a457600080fd5b919050565b600080600060608486031215620000be578283fd5b620000c9846200008c565b9250620000d9602085016200008c565b9150604084015162ffffff81168114620000f1578182fd5b809150509250925092565b60805160601c60a05160601c60c05160e81c611607620001736000398061020452806106a952508061038e52806103f65280610614528061067d5280610833528061086a52806108f0525080610228528061036252806103be52806105dc528061065852806107c252806107f952506116076000f3fe608060405234801561001057600080fd5b50600436106100d45760003560e01c8063951583c311610081578063b44a27221161005b578063b44a2722146101df578063d21220a7146101e7578063da406491146101ef576100d4565b8063951583c314610179578063a588540c14610199578063b02c43d0146101bc576100d4565b806317d70f7c116100b257806317d70f7c1461012c578063686f2c9014610141578063696f9c8114610157576100d4565b8063089fe6aa146100d95780630dfe1681146100f7578063150b7a021461010c575b600080fd5b6100e1610202565b6040516100ee919061154a565b60405180910390f35b6100ff610226565b6040516100ee9190611328565b61011f61011a36600461105b565b61024a565b6040516100ee9190611370565b610134610281565b6040516100ee919061155a565b610149610287565b6040516100ee929190611587565b61016a6101653660046111e8565b610358565b6040516100ee93929190611529565b61018c610187366004611193565b6104fe565b6040516100ee9190611515565b6101ac6101a73660046110f5565b610595565b6040516100ee9493929190611563565b6101cf6101ca366004611193565b61089e565b6040516100ee949392919061133c565b6100ff6108df565b6100ff6108ee565b6101496101fd36600461113a565b610912565b7f000000000000000000000000000000000000000000000000000000000000000081565b7f000000000000000000000000000000000000000000000000000000000000000081565b600061025686856109ed565b507f150b7a020000000000000000000000000000000000000000000000000000000095945050505050565b60025481565b6040805160808101825260025481523060208201526001600160801b0381830181905260608201526000805492517ffc6f786500000000000000000000000000000000000000000000000000000000815290928392916001600160a01b039091169063fc6f7865906102fd90849060040161139d565b6040805180830381600087803b15801561031657600080fd5b505af115801561032a573d6000803e3d6000fd5b505050506040513d601f19601f8201168201806040525081019061034e9190611209565b9094909350915050565b60008060006103897f0000000000000000000000000000000000000000000000000000000000000000333088610b9f565b6103b57f0000000000000000000000000000000000000000000000000000000000000000333087610b9f565b6000546103ed907f0000000000000000000000000000000000000000000000000000000000000000906001600160a01b031687610d2a565b600054610425907f0000000000000000000000000000000000000000000000000000000000000000906001600160a01b031686610d2a565b6040805160c081018252600254815260208101879052808201869052600060608201819052608082018190524260a08301525491517f219f5d1700000000000000000000000000000000000000000000000000000000815290916001600160a01b03169063219f5d179061049d908490600401611423565b606060405180830381600087803b1580156104b757600080fd5b505af11580156104cb573d6000803e3d6000fd5b505050506040513d601f19601f820116820180604052508101906104ef919061115d565b91989097509095509350505050565b6000805460405163133f757160e31b815282916001600160a01b0316906399fbab889061052f90869060040161155a565b6101806040518083038186803b15801561054857600080fd5b505afa15801561055c573d6000803e3d6000fd5b505050506040513d601f19601f82011682018060405250810190610580919061122c565b50929b5050505050505050505050505b919050565b6000808080620d89e719600289900b136105b357620d89e7196105b5565b875b9750620d89e8600288900b126105ce57620d89e86105d0565b865b60005490975061060b907f0000000000000000000000000000000000000000000000000000000000000000906001600160a01b031688610d2a565b600054610643907f0000000000000000000000000000000000000000000000000000000000000000906001600160a01b031687610d2a565b60408051610160810182526001600160a01b037f0000000000000000000000000000000000000000000000000000000000000000811682527f00000000000000000000000000000000000000000000000000000000000000008116602083015262ffffff7f0000000000000000000000000000000000000000000000000000000000000000168284015260028b810b60608401528a900b608083015260a0820189905260c08201889052600060e08301819052610100830181905230610120840152426101408401525492517f883164560000000000000000000000000000000000000000000000000000000081529192169063883164569061074a908490600401611467565b608060405180830381600087803b15801561076457600080fd5b505af1158015610778573d6000803e3d6000fd5b505050506040513d601f19601f8201168201806040525081019061079c91906111ab565b929750909550935091506107b033866109ed565b8683101561082157600080546107f1917f0000000000000000000000000000000000000000000000000000000000000000916001600160a01b031690610d2a565b82870361081f7f00000000000000000000000000000000000000000000000000000000000000003383610eac565b505b858210156108925760008054610862917f0000000000000000000000000000000000000000000000000000000000000000916001600160a01b031690610d2a565b8186036108907f00000000000000000000000000000000000000000000000000000000000000003383610eac565b505b50945094509450949050565b600160208190526000918252604090912080549181015460028201546003909201546001600160a01b03938416936001600160801b03909216928216911684565b6000546001600160a01b031681565b7f000000000000000000000000000000000000000000000000000000000000000081565b6040805160a08101825260025481526001600160801b0383166020820152600081830181905260608201819052426080830152805492517f0c49ccbe00000000000000000000000000000000000000000000000000000000815290928392916001600160a01b0390911690630c49ccbe906109919084906004016113e0565b6040805180830381600087803b1580156109aa57600080fd5b505af11580156109be573d6000803e3d6000fd5b505050506040513d601f19601f820116820180604052508101906109e29190611209565b909590945092505050565b6000805460405163133f757160e31b8152829182916001600160a01b03909116906399fbab8890610a2290879060040161155a565b6101806040518083038186803b158015610a3b57600080fd5b505afa158015610a4f573d6000803e3d6000fd5b505050506040513d601f19601f82011682018060405250810190610a73919061122c565b5050505097505050509450945050506040518060800160405280866001600160a01b03168152602001826001600160801b03168152602001846001600160a01b03168152602001836001600160a01b03168152506001600086815260200190815260200160002060008201518160000160006101000a8154816001600160a01b0302191690836001600160a01b0316021790555060208201518160010160006101000a8154816001600160801b0302191690836001600160801b0316021790555060408201518160020160006101000a8154816001600160a01b0302191690836001600160a01b0316021790555060608201518160030160006101000a8154816001600160a01b0302191690836001600160a01b03160217905550905050836002819055505050505050565b604080516001600160a01b0385811660248301528481166044830152606480830185905283518084039091018152608490920183526020820180516001600160e01b03167f23b872dd00000000000000000000000000000000000000000000000000000000178152925182516000948594938a169392918291908083835b60208310610c3c5780518252601f199092019160209182019101610c1d565b6001836020036101000a0380198251168184511680821785525050505050509050019150506000604051808303816000865af19150503d8060008114610c9e576040519150601f19603f3d011682016040523d82523d6000602084013e610ca3565b606091505b5091509150818015610cd1575080511580610cd15750808060200190516020811015610cce57600080fd5b50515b610d22576040805162461bcd60e51b815260206004820152600360248201527f5354460000000000000000000000000000000000000000000000000000000000604482015290519081900360640190fd5b505050505050565b604080516001600160a01b038481166024830152604480830185905283518084039091018152606490920183526020820180516001600160e01b03167f095ea7b3000000000000000000000000000000000000000000000000000000001781529251825160009485949389169392918291908083835b60208310610dbf5780518252601f199092019160209182019101610da0565b6001836020036101000a0380198251168184511680821785525050505050509050019150506000604051808303816000865af19150503d8060008114610e21576040519150601f19603f3d011682016040523d82523d6000602084013e610e26565b606091505b5091509150818015610e54575080511580610e545750808060200190516020811015610e5157600080fd5b50515b610ea5576040805162461bcd60e51b815260206004820152600260248201527f5341000000000000000000000000000000000000000000000000000000000000604482015290519081900360640190fd5b5050505050565b604080516001600160a01b038481166024830152604480830185905283518084039091018152606490920183526020820180516001600160e01b03167fa9059cbb000000000000000000000000000000000000000000000000000000001781529251825160009485949389169392918291908083835b60208310610f415780518252601f199092019160209182019101610f22565b6001836020036101000a0380198251168184511680821785525050505050509050019150506000604051808303816000865af19150503d8060008114610fa3576040519150601f19603f3d011682016040523d82523d6000602084013e610fa8565b606091505b5091509150818015610fd6575080511580610fd65750808060200190516020811015610fd357600080fd5b50515b610ea5576040805162461bcd60e51b815260206004820152600260248201527f5354000000000000000000000000000000000000000000000000000000000000604482015290519081900360640190fd5b805161059081611595565b8051610590816115ad565b8051610590816115bc565b805162ffffff8116811461059057600080fd5b600080600080600060808688031215611072578081fd5b853561107d81611595565b9450602086013561108d81611595565b935060408601359250606086013567ffffffffffffffff808211156110b0578283fd5b818801915088601f8301126110c3578283fd5b8135818111156110d1578384fd5b8960208285010111156110e2578384fd5b9699959850939650602001949392505050565b6000806000806080858703121561110a578384fd5b8435611115816115ad565b93506020850135611125816115ad565b93969395505050506040820135916060013590565b60006020828403121561114b578081fd5b8135611156816115bc565b9392505050565b600080600060608486031215611171578283fd5b835161117c816115bc565b602085015160409095015190969495509392505050565b6000602082840312156111a4578081fd5b5035919050565b600080600080608085870312156111c0578384fd5b8451935060208501516111d2816115bc565b6040860151606090960151949790965092505050565b600080604083850312156111fa578182fd5b50508035926020909101359150565b6000806040838503121561121b578182fd5b505080516020909101519092909150565b6000806000806000806000806000806000806101808d8f03121561124e578687fd5b8c516bffffffffffffffffffffffff81168114611269578788fd5b9b5061127760208e01611027565b9a5061128560408e01611027565b995061129360608e01611027565b98506112a160808e01611048565b97506112af60a08e01611032565b96506112bd60c08e01611032565b95506112cb60e08e0161103d565b94506101008d015193506101208d015192506112ea6101408e0161103d565b91506112f96101608e0161103d565b90509295989b509295989b509295989b565b6001600160a01b03169052565b60020b9052565b62ffffff169052565b6001600160a01b0391909116815260200190565b6001600160a01b0394851681526001600160801b039390931660208401529083166040830152909116606082015260800190565b7fffffffff0000000000000000000000000000000000000000000000000000000091909116815260200190565b815181526020808301516001600160a01b0316908201526040808301516001600160801b0390811691830191909152606092830151169181019190915260800190565b600060a082019050825182526001600160801b03602084015116602083015260408301516040830152606083015160608301526080830151608083015292915050565b600060c082019050825182526020830151602083015260408301516040830152606083015160608301526080830151608083015260a083015160a083015292915050565b60006101608201905061147b82845161130b565b602083015161148d602084018261130b565b5060408301516114a0604084018261131f565b5060608301516114b36060840182611318565b5060808301516114c66080840182611318565b5060a083015160a083015260c083015160c083015260e083015160e0830152610100808401518184015250610120808401516115048285018261130b565b505061014092830151919092015290565b6001600160801b0391909116815260200190565b6001600160801b039390931683526020830191909152604082015260600190565b62ffffff91909116815260200190565b90815260200190565b9384526001600160801b039290921660208401526040830152606082015260800190565b918252602082015260400190565b6001600160a01b03811681146115aa57600080fd5b50565b8060020b81146115aa57600080fd5b6001600160801b03811681146115aa57600080fdfea26469706673582212200758bc815d83b1d9dc430fcfef5572b0d0bbec50d11642bd148e814d8bb2a76764736f6c63430007060033",
  "linkReferences": {},
  "deployedLinkReferences": {}
}