{
  "contracts/Custodian.sol": {
    "Custodian": {
      "abi": [
        {
          "inputs": [
            {
              "internalType": "address",
              "name": "_token0",
              "type": "address"
            },
            {
              "internalType": "address",
              "name": "_token1",
              "type": "address"
            },
            {
              "internalType": "uint24",
              "name": "_poolFee",
              "type": "uint24"
            }
          ],
          "stateMutability": "nonpayable",
          "type": "constructor"
        },
        {
          "inputs": [],
          "name": "collectAllFees",
          "outputs": [
            {
              "internalType": "uint256",
              "name": "amount0",
              "type": "uint256"
            },
            {
              "internalType": "uint256",
              "name": "amount1",
              "type": "uint256"
            }
          ],
          "stateMutability": "nonpayable",
          "type": "function"
        },
        {
          "inputs": [
            {
              "internalType": "uint128",
              "name": "liquidity",
              "type": "uint128"
            }
          ],
          "name": "decreaseLiquidity",
          "outputs": [
            {
              "internalType": "uint256",
              "name": "amount0",
              "type": "uint256"
            },
            {
              "internalType": "uint256",
              "name": "amount1",
              "type": "uint256"
            }
          ],
          "stateMutability": "nonpayable",
          "type": "function"
        },
        {
          "inputs": [
            {
              "internalType": "uint256",
              "name": "",
              "type": "uint256"
            }
          ],
          "name": "deposits",
          "outputs": [
            {
              "internalType": "address",
              "name": "owner",
              "type": "address"
            },
            {
              "internalType": "uint128",
              "name": "liquidity",
              "type": "uint128"
            },
            {
              "internalType": "address",
              "name": "token0",
              "type": "address"
            },
            {
              "internalType": "address",
              "name": "token1",
              "type": "address"
            }
          ],
          "stateMutability": "view",
          "type": "function"
        },
        {
          "inputs": [
            {
              "internalType": "uint256",
              "name": "_tokenId",
              "type": "uint256"
            }
          ],
          "name": "getLiquidity",
          "outputs": [
            {
              "internalType": "uint128",
              "name": "",
              "type": "uint128"
            }
          ],
          "stateMutability": "view",
          "type": "function"
        },
        {
          "inputs": [
            {
              "internalType": "uint256",
              "name": "amountAdd0",
              "type": "uint256"
            },
            {
              "internalType": "uint256",
              "name": "amountAdd1",
              "type": "uint256"
            }
          ],
          "name": "increaseLiquidity",
          "outputs": [
            {
              "internalType": "uint128",
              "name": "liquidity",
              "type": "uint128"
            },
            {
              "internalType": "uint256",
              "name": "amount0",
              "type": "uint256"
            },
            {
              "internalType": "uint256",
              "name": "amount1",
              "type": "uint256"
            }
          ],
          "stateMutability": "nonpayable",
          "type": "function"
        },
        {
          "inputs": [
            {
              "internalType": "int24",
              "name": "tickLower",
              "type": "int24"
            },
            {
              "internalType": "int24",
              "name": "tickUpper",
              "type": "int24"
            },
            {
              "internalType": "uint256",
              "name": "amount0ToMint",
              "type": "uint256"
            },
            {
              "internalType": "uint256",
              "name": "amount1ToMint",
              "type": "uint256"
            }
          ],
          "name": "mintNewPosition",
          "outputs": [
            {
              "internalType": "uint256",
              "name": "_tokenId",
              "type": "uint256"
            },
            {
              "internalType": "uint128",
              "name": "liquidity",
              "type": "uint128"
            },
            {
              "internalType": "uint256",
              "name": "amount0",
              "type": "uint256"
            },
            {
              "internalType": "uint256",
              "name": "amount1",
              "type": "uint256"
            }
          ],
          "stateMutability": "nonpayable",
          "type": "function"
        },
        {
          "inputs": [],
          "name": "nonfungiblePositionManager",
          "outputs": [
            {
              "internalType": "contract INonfungiblePositionManager",
              "name": "",
              "type": "address"
            }
          ],
          "stateMutability": "view",
          "type": "function"
        },
        {
          "inputs": [
            {
              "internalType": "address",
              "name": "operator",
              "type": "address"
            },
            {
              "internalType": "address",
              "name": "",
              "type": "address"
            },
            {
              "internalType": "uint256",
              "name": "_tokenId",
              "type": "uint256"
            },
            {
              "internalType": "bytes",
              "name": "",
              "type": "bytes"
            }
          ],
          "name": "onERC721Received",
          "outputs": [
            {
              "internalType": "bytes4",
              "name": "",
              "type": "bytes4"
            }
          ],
          "stateMutability": "nonpayable",
          "type": "function"
        },
        {
          "inputs": [],
          "name": "poolFee",
          "outputs": [
            {
              "internalType": "uint24",
              "name": "",
              "type": "uint24"
            }
          ],
          "stateMutability": "view",
          "type": "function"
        },
        {
          "inputs": [],
          "name": "token0",
          "outputs": [
            {
              "internalType": "address",
              "name": "",
              "type": "address"
            }
          ],
          "stateMutability": "view",
          "type": "function"
        },
        {
          "inputs": [],
          "name": "token1",
          "outputs": [
            {
              "internalType": "address",
              "name": "",
              "type": "address"
            }
          ],
          "stateMutability": "view",
          "type": "function"
        },
        {
          "inputs": [],
          "name": "tokenId",
          "outputs": [
            {
              "internalType": "uint256",
              "name": "",
              "type": "uint256"
            }
          ],
          "stateMutability": "view",
          "type": "function"
        }
      ],
      "evm": {
        "bytecode": {
          "linkReferences": {},
          "object": "60e0604052600080546001600160a01b03191673c36442b4a4522e871399cd717abdd847ab11fe881790553480156200003757600080fd5b506040516200177a3803806200177a8339810160408190526200005a91620000a9565b606092831b6001600160601b03199081166080529190921b1660a05260e81b6001600160e81b03191660c052620000fc565b80516001600160a01b0381168114620000a457600080fd5b919050565b600080600060608486031215620000be578283fd5b620000c9846200008c565b9250620000d9602085016200008c565b9150604084015162ffffff81168114620000f1578182fd5b809150509250925092565b60805160601c60a05160601c60c05160e81c611607620001736000398061020452806106a952508061038e52806103f65280610614528061067d5280610833528061086a52806108f0525080610228528061036252806103be52806105dc528061065852806107c252806107f952506116076000f3fe608060405234801561001057600080fd5b50600436106100d45760003560e01c8063951583c311610081578063b44a27221161005b578063b44a2722146101df578063d21220a7146101e7578063da406491146101ef576100d4565b8063951583c314610179578063a588540c14610199578063b02c43d0146101bc576100d4565b806317d70f7c116100b257806317d70f7c1461012c578063686f2c9014610141578063696f9c8114610157576100d4565b8063089fe6aa146100d95780630dfe1681146100f7578063150b7a021461010c575b600080fd5b6100e1610202565b6040516100ee919061154a565b60405180910390f35b6100ff610226565b6040516100ee9190611328565b61011f61011a36600461105b565b61024a565b6040516100ee9190611370565b610134610281565b6040516100ee919061155a565b610149610287565b6040516100ee929190611587565b61016a6101653660046111e8565b610358565b6040516100ee93929190611529565b61018c610187366004611193565b6104fe565b6040516100ee9190611515565b6101ac6101a73660046110f5565b610595565b6040516100ee9493929190611563565b6101cf6101ca366004611193565b61089e565b6040516100ee949392919061133c565b6100ff6108df565b6100ff6108ee565b6101496101fd36600461113a565b610912565b7f000000000000000000000000000000000000000000000000000000000000000081565b7f000000000000000000000000000000000000000000000000000000000000000081565b600061025686856109ed565b507f150b7a020000000000000000000000000000000000000000000000000000000095945050505050565b60025481565b6040805160808101825260025481523060208201526001600160801b0381830181905260608201526000805492517ffc6f786500000000000000000000000000000000000000000000000000000000815290928392916001600160a01b039091169063fc6f7865906102fd90849060040161139d565b6040805180830381600087803b15801561031657600080fd5b505af115801561032a573d6000803e3d6000fd5b505050506040513d601f19601f8201168201806040525081019061034e9190611209565b9094909350915050565b60008060006103897f0000000000000000000000000000000000000000000000000000000000000000333088610b9f565b6103b57f0000000000000000000000000000000000000000000000000000000000000000333087610b9f565b6000546103ed907f0000000000000000000000000000000000000000000000000000000000000000906001600160a01b031687610d2a565b600054610425907f0000000000000000000000000000000000000000000000000000000000000000906001600160a01b031686610d2a565b6040805160c081018252600254815260208101879052808201869052600060608201819052608082018190524260a08301525491517f219f5d1700000000000000000000000000000000000000000000000000000000815290916001600160a01b03169063219f5d179061049d908490600401611423565b606060405180830381600087803b1580156104b757600080fd5b505af11580156104cb573d6000803e3d6000fd5b505050506040513d601f19601f820116820180604052508101906104ef919061115d565b91989097509095509350505050565b6000805460405163133f757160e31b815282916001600160a01b0316906399fbab889061052f90869060040161155a565b6101806040518083038186803b15801561054857600080fd5b505afa15801561055c573d6000803e3d6000fd5b505050506040513d601f19601f82011682018060405250810190610580919061122c565b50929b5050505050505050505050505b919050565b6000808080620d89e719600289900b136105b357620d89e7196105b5565b875b9750620d89e8600288900b126105ce57620d89e86105d0565b865b60005490975061060b907f0000000000000000000000000000000000000000000000000000000000000000906001600160a01b031688610d2a565b600054610643907f0000000000000000000000000000000000000000000000000000000000000000906001600160a01b031687610d2a565b60408051610160810182526001600160a01b037f0000000000000000000000000000000000000000000000000000000000000000811682527f00000000000000000000000000000000000000000000000000000000000000008116602083015262ffffff7f0000000000000000000000000000000000000000000000000000000000000000168284015260028b810b60608401528a900b608083015260a0820189905260c08201889052600060e08301819052610100830181905230610120840152426101408401525492517f883164560000000000000000000000000000000000000000000000000000000081529192169063883164569061074a908490600401611467565b608060405180830381600087803b15801561076457600080fd5b505af1158015610778573d6000803e3d6000fd5b505050506040513d601f19601f8201168201806040525081019061079c91906111ab565b929750909550935091506107b033866109ed565b8683101561082157600080546107f1917f0000000000000000000000000000000000000000000000000000000000000000916001600160a01b031690610d2a565b82870361081f7f00000000000000000000000000000000000000000000000000000000000000003383610eac565b505b858210156108925760008054610862917f0000000000000000000000000000000000000000000000000000000000000000916001600160a01b031690610d2a565b8186036108907f00000000000000000000000000000000000000000000000000000000000000003383610eac565b505b50945094509450949050565b600160208190526000918252604090912080549181015460028201546003909201546001600160a01b03938416936001600160801b03909216928216911684565b6000546001600160a01b031681565b7f000000000000000000000000000000000000000000000000000000000000000081565b6040805160a08101825260025481526001600160801b0383166020820152600081830181905260608201819052426080830152805492517f0c49ccbe00000000000000000000000000000000000000000000000000000000815290928392916001600160a01b0390911690630c49ccbe906109919084906004016113e0565b6040805180830381600087803b1580156109aa57600080fd5b505af11580156109be573d6000803e3d6000fd5b505050506040513d601f19601f820116820180604052508101906109e29190611209565b909590945092505050565b6000805460405163133f757160e31b8152829182916001600160a01b03909116906399fbab8890610a2290879060040161155a565b6101806040518083038186803b158015610a3b57600080fd5b505afa158015610a4f573d6000803e3d6000fd5b505050506040513d601f19601f82011682018060405250810190610a73919061122c565b5050505097505050509450945050506040518060800160405280866001600160a01b03168152602001826001600160801b03168152602001846001600160a01b03168152602001836001600160a01b03168152506001600086815260200190815260200160002060008201518160000160006101000a8154816001600160a01b0302191690836001600160a01b0316021790555060208201518160010160006101000a8154816001600160801b0302191690836001600160801b0316021790555060408201518160020160006101000a8154816001600160a01b0302191690836001600160a01b0316021790555060608201518160030160006101000a8154816001600160a01b0302191690836001600160a01b03160217905550905050836002819055505050505050565b604080516001600160a01b0385811660248301528481166044830152606480830185905283518084039091018152608490920183526020820180516001600160e01b03167f23b872dd00000000000000000000000000000000000000000000000000000000178152925182516000948594938a169392918291908083835b60208310610c3c5780518252601f199092019160209182019101610c1d565b6001836020036101000a0380198251168184511680821785525050505050509050019150506000604051808303816000865af19150503d8060008114610c9e576040519150601f19603f3d011682016040523d82523d6000602084013e610ca3565b606091505b5091509150818015610cd1575080511580610cd15750808060200190516020811015610cce57600080fd5b50515b610d22576040805162461bcd60e51b815260206004820152600360248201527f5354460000000000000000000000000000000000000000000000000000000000604482015290519081900360640190fd5b505050505050565b604080516001600160a01b038481166024830152604480830185905283518084039091018152606490920183526020820180516001600160e01b03167f095ea7b3000000000000000000000000000000000000000000000000000000001781529251825160009485949389169392918291908083835b60208310610dbf5780518252601f199092019160209182019101610da0565b6001836020036101000a0380198251168184511680821785525050505050509050019150506000604051808303816000865af19150503d8060008114610e21576040519150601f19603f3d011682016040523d82523d6000602084013e610e26565b606091505b5091509150818015610e54575080511580610e545750808060200190516020811015610e5157600080fd5b50515b610ea5576040805162461bcd60e51b815260206004820152600260248201527f5341000000000000000000000000000000000000000000000000000000000000604482015290519081900360640190fd5b5050505050565b604080516001600160a01b038481166024830152604480830185905283518084039091018152606490920183526020820180516001600160e01b03167fa9059cbb000000000000000000000000000000000000000000000000000000001781529251825160009485949389169392918291908083835b60208310610f415780518252601f199092019160209182019101610f22565b6001836020036101000a0380198251168184511680821785525050505050509050019150506000604051808303816000865af19150503d8060008114610fa3576040519150601f19603f3d011682016040523d82523d6000602084013e610fa8565b606091505b5091509150818015610fd6575080511580610fd65750808060200190516020811015610fd357600080fd5b50515b610ea5576040805162461bcd60e51b815260206004820152600260248201527f5354000000000000000000000000000000000000000000000000000000000000604482015290519081900360640190fd5b805161059081611595565b8051610590816115ad565b8051610590816115bc565b805162ffffff8116811461059057600080fd5b600080600080600060808688031215611072578081fd5b853561107d81611595565b9450602086013561108d81611595565b935060408601359250606086013567ffffffffffffffff808211156110b0578283fd5b818801915088601f8301126110c3578283fd5b8135818111156110d1578384fd5b8960208285010111156110e2578384fd5b9699959850939650602001949392505050565b6000806000806080858703121561110a578384fd5b8435611115816115ad565b93506020850135611125816115ad565b93969395505050506040820135916060013590565b60006020828403121561114b578081fd5b8135611156816115bc565b9392505050565b600080600060608486031215611171578283fd5b835161117c816115bc565b602085015160409095015190969495509392505050565b6000602082840312156111a4578081fd5b5035919050565b600080600080608085870312156111c0578384fd5b8451935060208501516111d2816115bc565b6040860151606090960151949790965092505050565b600080604083850312156111fa578182fd5b50508035926020909101359150565b6000806040838503121561121b578182fd5b505080516020909101519092909150565b6000806000806000806000806000806000806101808d8f03121561124e578687fd5b8c516bffffffffffffffffffffffff81168114611269578788fd5b9b5061127760208e01611027565b9a5061128560408e01611027565b995061129360608e01611027565b98506112a160808e01611048565b97506112af60a08e01611032565b96506112bd60c08e01611032565b95506112cb60e08e0161103d565b94506101008d015193506101208d015192506112ea6101408e0161103d565b91506112f96101608e0161103d565b90509295989b509295989b509295989b565b6001600160a01b03169052565b60020b9052565b62ffffff169052565b6001600160a01b0391909116815260200190565b6001600160a01b0394851681526001600160801b039390931660208401529083166040830152909116606082015260800190565b7fffffffff0000000000000000000000000000000000000000000000000000000091909116815260200190565b815181526020808301516001600160a01b0316908201526040808301516001600160801b0390811691830191909152606092830151169181019190915260800190565b600060a082019050825182526001600160801b03602084015116602083015260408301516040830152606083015160608301526080830151608083015292915050565b600060c082019050825182526020830151602083015260408301516040830152606083015160608301526080830151608083015260a083015160a083015292915050565b60006101608201905061147b82845161130b565b602083015161148d602084018261130b565b5060408301516114a0604084018261131f565b5060608301516114b36060840182611318565b5060808301516114c66080840182611318565b5060a083015160a083015260c083015160c083015260e083015160e0830152610100808401518184015250610120808401516115048285018261130b565b505061014092830151919092015290565b6001600160801b0391909116815260200190565b6001600160801b039390931683526020830191909152604082015260600190565b62ffffff91909116815260200190565b90815260200190565b9384526001600160801b039290921660208401526040830152606082015260800190565b918252602082015260400190565b6001600160a01b03811681146115aa57600080fd5b50565b8060020b81146115aa57600080fd5b6001600160801b03811681146115aa57600080fdfea26469706673582212200758bc815d83b1d9dc430fcfef5572b0d0bbec50d11642bd148e814d8bb2a76764736f6c63430007060033",
          "opcodes": "PUSH1 0xE0 PUSH1 0x40 MSTORE PUSH1 0x0 DUP1 SLOAD PUSH1 0x1 PUSH1 0x1 PUSH1 0xA0 SHL SUB NOT AND PUSH20 0xC36442B4A4522E871399CD717ABDD847AB11FE88 OR SWAP1 SSTORE CALLVALUE DUP1 ISZERO PUSH3 0x37 JUMPI PUSH1 0x0 DUP1 REVERT JUMPDEST POP PUSH1 0x40 MLOAD PUSH3 0x177A CODESIZE SUB DUP1 PUSH3 0x177A DUP4 CODECOPY DUP2 ADD PUSH1 0x40 DUP2 SWAP1 MSTORE PUSH3 0x5A SWAP2 PUSH3 0xA9 JUMP JUMPDEST PUSH1 0x60 SWAP3 DUP4 SHL PUSH1 0x1 PUSH1 0x1 PUSH1 0x60 SHL SUB NOT SWAP1 DUP2 AND PUSH1 0x80 MSTORE SWAP2 SWAP1 SWAP3 SHL AND PUSH1 0xA0 MSTORE PUSH1 0xE8 SHL PUSH1 0x1 PUSH1 0x1 PUSH1 0xE8 SHL SUB NOT AND PUSH1 0xC0 MSTORE PUSH3 0xFC JUMP JUMPDEST DUP1 MLOAD PUSH1 0x1 PUSH1 0x1 PUSH1 0xA0 SHL SUB DUP2 AND DUP2 EQ PUSH3 0xA4 JUMPI PUSH1 0x0 DUP1 REVERT JUMPDEST SWAP2 SWAP1 POP JUMP JUMPDEST PUSH1 0x0 DUP1 PUSH1 0x0 PUSH1 0x60 DUP5 DUP7 SUB SLT ISZERO PUSH3 0xBE JUMPI DUP3 DUP4 REVERT JUMPDEST PUSH3 0xC9 DUP5 PUSH3 0x8C JUMP JUMPDEST SWAP3 POP PUSH3 0xD9 PUSH1 0x20 DUP6 ADD PUSH3 0x8C JUMP JUMPDEST SWAP2 POP PUSH1 0x40 DUP5 ADD MLOAD PUSH3 0xFFFFFF DUP2 AND DUP2 EQ PUSH3 0xF1 JUMPI DUP2 DUP3 REVERT JUMPDEST DUP1 SWAP2 POP POP SWAP3 POP SWAP3 POP SWAP3 JUMP JUMPDEST PUSH1 0x80 MLOAD PUSH1 0x60 SHR PUSH1 0xA0 MLOAD PUSH1 0x60 SHR PUSH1 0xC0 MLOAD PUSH1 0xE8 SHR PUSH2 0x1607 PUSH3 0x173 PUSH1 0x0 CODECOPY DUP1 PUSH2 0x204 MSTORE DUP1 PUSH2 0x6A9 MSTORE POP DUP1 PUSH2 0x38E MSTORE DUP1 PUSH2 0x3F6 MSTORE DUP1 PUSH2 0x614 MSTORE DUP1 PUSH2 0x67D MSTORE DUP1 PUSH2 0x833 MSTORE DUP1 PUSH2 0x86A MSTORE DUP1 PUSH2 0x8F0 MSTORE POP DUP1 PUSH2 0x228 MSTORE DUP1 PUSH2 0x362 MSTORE DUP1 PUSH2 0x3BE MSTORE DUP1 PUSH2 0x5DC MSTORE DUP1 PUSH2 0x658 MSTORE DUP1 PUSH2 0x7C2 MSTORE DUP1 PUSH2 0x7F9 MSTORE POP PUSH2 0x1607 PUSH1 0x0 RETURN INVALID PUSH1 0x80 PUSH1 0x40 MSTORE CALLVALUE DUP1 ISZERO PUSH2 0x10 JUMPI PUSH1 0x0 DUP1 REVERT JUMPDEST POP PUSH1 0x4 CALLDATASIZE LT PUSH2 0xD4 JUMPI PUSH1 0x0 CALLDATALOAD PUSH1 0xE0 SHR DUP1 PUSH4 0x951583C3 GT PUSH2 0x81 JUMPI DUP1 PUSH4 0xB44A2722 GT PUSH2 0x5B JUMPI DUP1 PUSH4 0xB44A2722 EQ PUSH2 0x1DF JUMPI DUP1 PUSH4 0xD21220A7 EQ PUSH2 0x1E7 JUMPI DUP1 PUSH4 0xDA406491 EQ PUSH2 0x1EF JUMPI PUSH2 0xD4 JUMP JUMPDEST DUP1 PUSH4 0x951583C3 EQ PUSH2 0x179 JUMPI DUP1 PUSH4 0xA588540C EQ PUSH2 0x199 JUMPI DUP1 PUSH4 0xB02C43D0 EQ PUSH2 0x1BC JUMPI PUSH2 0xD4 JUMP JUMPDEST DUP1 PUSH4 0x17D70F7C GT PUSH2 0xB2 JUMPI DUP1 PUSH4 0x17D70F7C EQ PUSH2 0x12C JUMPI DUP1 PUSH4 0x686F2C90 EQ PUSH2 0x141 JUMPI DUP1 PUSH4 0x696F9C81 EQ PUSH2 0x157 JUMPI PUSH2 0xD4 JUMP JUMPDEST DUP1 PUSH4 0x89FE6AA EQ PUSH2 0xD9 JUMPI DUP1 PUSH4 0xDFE1681 EQ PUSH2 0xF7 JUMPI DUP1 PUSH4 0x150B7A02 EQ PUSH2 0x10C JUMPI JUMPDEST PUSH1 0x0 DUP1 REVERT JUMPDEST PUSH2 0xE1 PUSH2 0x202 JUMP JUMPDEST PUSH1 0x40 MLOAD PUSH2 0xEE SWAP2 SWAP1 PUSH2 0x154A JUMP JUMPDEST PUSH1 0x40 MLOAD DUP1 SWAP2 SUB SWAP1 RETURN JUMPDEST PUSH2 0xFF PUSH2 0x226 JUMP JUMPDEST PUSH1 0x40 MLOAD PUSH2 0xEE SWAP2 SWAP1 PUSH2 0x1328 JUMP JUMPDEST PUSH2 0x11F PUSH2 0x11A CALLDATASIZE PUSH1 0x4 PUSH2 0x105B JUMP JUMPDEST PUSH2 0x24A JUMP JUMPDEST PUSH1 0x40 MLOAD PUSH2 0xEE SWAP2 SWAP1 PUSH2 0x1370 JUMP JUMPDEST PUSH2 0x134 PUSH2 0x281 JUMP JUMPDEST PUSH1 0x40 MLOAD PUSH2 0xEE SWAP2 SWAP1 PUSH2 0x155A JUMP JUMPDEST PUSH2 0x149 PUSH2 0x287 JUMP JUMPDEST PUSH1 0x40 MLOAD PUSH2 0xEE SWAP3 SWAP2 SWAP1 PUSH2 0x1587 JUMP JUMPDEST PUSH2 0x16A PUSH2 0x165 CALLDATASIZE PUSH1 0x4 PUSH2 0x11E8 JUMP JUMPDEST PUSH2 0x358 JUMP JUMPDEST PUSH1 0x40 MLOAD PUSH2 0xEE SWAP4 SWAP3 SWAP2 SWAP1 PUSH2 0x1529 JUMP JUMPDEST PUSH2 0x18C PUSH2 0x187 CALLDATASIZE PUSH1 0x4 PUSH2 0x1193 JUMP JUMPDEST PUSH2 0x4FE JUMP JUMPDEST PUSH1 0x40 MLOAD PUSH2 0xEE SWAP2 SWAP1 PUSH2 0x1515 JUMP JUMPDEST PUSH2 0x1AC PUSH2 0x1A7 CALLDATASIZE PUSH1 0x4 PUSH2 0x10F5 JUMP JUMPDEST PUSH2 0x595 JUMP JUMPDEST PUSH1 0x40 MLOAD PUSH2 0xEE SWAP5 SWAP4 SWAP3 SWAP2 SWAP1 PUSH2 0x1563 JUMP JUMPDEST PUSH2 0x1CF PUSH2 0x1CA CALLDATASIZE PUSH1 0x4 PUSH2 0x1193 JUMP JUMPDEST PUSH2 0x89E JUMP JUMPDEST PUSH1 0x40 MLOAD PUSH2 0xEE SWAP5 SWAP4 SWAP3 SWAP2 SWAP1 PUSH2 0x133C JUMP JUMPDEST PUSH2 0xFF PUSH2 0x8DF JUMP JUMPDEST PUSH2 0xFF PUSH2 0x8EE JUMP JUMPDEST PUSH2 0x149 PUSH2 0x1FD CALLDATASIZE PUSH1 0x4 PUSH2 0x113A JUMP JUMPDEST PUSH2 0x912 JUMP JUMPDEST PUSH32 0x0 DUP2 JUMP JUMPDEST PUSH32 0x0 DUP2 JUMP JUMPDEST PUSH1 0x0 PUSH2 0x256 DUP7 DUP6 PUSH2 0x9ED JUMP JUMPDEST POP PUSH32 0x150B7A0200000000000000000000000000000000000000000000000000000000 SWAP6 SWAP5 POP POP POP POP POP JUMP JUMPDEST PUSH1 0x2 SLOAD DUP2 JUMP JUMPDEST PUSH1 0x40 DUP1 MLOAD PUSH1 0x80 DUP2 ADD DUP3 MSTORE PUSH1 0x2 SLOAD DUP2 MSTORE ADDRESS PUSH1 0x20 DUP3 ADD MSTORE PUSH1 0x1 PUSH1 0x1 PUSH1 0x80 SHL SUB DUP2 DUP4 ADD DUP2 SWAP1 MSTORE PUSH1 0x60 DUP3 ADD MSTORE PUSH1 0x0 DUP1 SLOAD SWAP3 MLOAD PUSH32 0xFC6F786500000000000000000000000000000000000000000000000000000000 DUP2 MSTORE SWAP1 SWAP3 DUP4 SWAP3 SWAP2 PUSH1 0x1 PUSH1 0x1 PUSH1 0xA0 SHL SUB SWAP1 SWAP2 AND SWAP1 PUSH4 0xFC6F7865 SWAP1 PUSH2 0x2FD SWAP1 DUP5 SWAP1 PUSH1 0x4 ADD PUSH2 0x139D JUMP JUMPDEST PUSH1 0x40 DUP1 MLOAD DUP1 DUP4 SUB DUP2 PUSH1 0x0 DUP8 DUP1 EXTCODESIZE ISZERO DUP1 ISZERO PUSH2 0x316 JUMPI PUSH1 0x0 DUP1 REVERT JUMPDEST POP GAS CALL ISZERO DUP1 ISZERO PUSH2 0x32A JUMPI RETURNDATASIZE PUSH1 0x0 DUP1 RETURNDATACOPY RETURNDATASIZE PUSH1 0x0 REVERT JUMPDEST POP POP POP POP PUSH1 0x40 MLOAD RETURNDATASIZE PUSH1 0x1F NOT PUSH1 0x1F DUP3 ADD AND DUP3 ADD DUP1 PUSH1 0x40 MSTORE POP DUP2 ADD SWAP1 PUSH2 0x34E SWAP2 SWAP1 PUSH2 0x1209 JUMP JUMPDEST SWAP1 SWAP5 SWAP1 SWAP4 POP SWAP2 POP POP JUMP JUMPDEST PUSH1 0x0 DUP1 PUSH1 0x0 PUSH2 0x389 PUSH32 0x0 CALLER ADDRESS DUP9 PUSH2 0xB9F JUMP JUMPDEST PUSH2 0x3B5 PUSH32 0x0 CALLER ADDRESS DUP8 PUSH2 0xB9F JUMP JUMPDEST PUSH1 0x0 SLOAD PUSH2 0x3ED SWAP1 PUSH32 0x0 SWAP1 PUSH1 0x1 PUSH1 0x1 PUSH1 0xA0 SHL SUB AND DUP8 PUSH2 0xD2A JUMP JUMPDEST PUSH1 0x0 SLOAD PUSH2 0x425 SWAP1 PUSH32 0x0 SWAP1 PUSH1 0x1 PUSH1 0x1 PUSH1 0xA0 SHL SUB AND DUP7 PUSH2 0xD2A JUMP JUMPDEST PUSH1 0x40 DUP1 MLOAD PUSH1 0xC0 DUP2 ADD DUP3 MSTORE PUSH1 0x2 SLOAD DUP2 MSTORE PUSH1 0x20 DUP2 ADD DUP8 SWAP1 MSTORE DUP1 DUP3 ADD DUP7 SWAP1 MSTORE PUSH1 0x0 PUSH1 0x60 DUP3 ADD DUP2 SWAP1 MSTORE PUSH1 0x80 DUP3 ADD DUP2 SWAP1 MSTORE TIMESTAMP PUSH1 0xA0 DUP4 ADD MSTORE SLOAD SWAP2 MLOAD PUSH32 0x219F5D1700000000000000000000000000000000000000000000000000000000 DUP2 MSTORE SWAP1 SWAP2 PUSH1 0x1 PUSH1 0x1 PUSH1 0xA0 SHL SUB AND SWAP1 PUSH4 0x219F5D17 SWAP1 PUSH2 0x49D SWAP1 DUP5 SWAP1 PUSH1 0x4 ADD PUSH2 0x1423 JUMP JUMPDEST PUSH1 0x60 PUSH1 0x40 MLOAD DUP1 DUP4 SUB DUP2 PUSH1 0x0 DUP8 DUP1 EXTCODESIZE ISZERO DUP1 ISZERO PUSH2 0x4B7 JUMPI PUSH1 0x0 DUP1 REVERT JUMPDEST POP GAS CALL ISZERO DUP1 ISZERO PUSH2 0x4CB JUMPI RETURNDATASIZE PUSH1 0x0 DUP1 RETURNDATACOPY RETURNDATASIZE PUSH1 0x0 REVERT JUMPDEST POP POP POP POP PUSH1 0x40 MLOAD RETURNDATASIZE PUSH1 0x1F NOT PUSH1 0x1F DUP3 ADD AND DUP3 ADD DUP1 PUSH1 0x40 MSTORE POP DUP2 ADD SWAP1 PUSH2 0x4EF SWAP2 SWAP1 PUSH2 0x115D JUMP JUMPDEST SWAP2 SWAP9 SWAP1 SWAP8 POP SWAP1 SWAP6 POP SWAP4 POP POP POP POP JUMP JUMPDEST PUSH1 0x0 DUP1 SLOAD PUSH1 0x40 MLOAD PUSH4 0x133F7571 PUSH1 0xE3 SHL DUP2 MSTORE DUP3 SWAP2 PUSH1 0x1 PUSH1 0x1 PUSH1 0xA0 SHL SUB AND SWAP1 PUSH4 0x99FBAB88 SWAP1 PUSH2 0x52F SWAP1 DUP7 SWAP1 PUSH1 0x4 ADD PUSH2 0x155A JUMP JUMPDEST PUSH2 0x180 PUSH1 0x40 MLOAD DUP1 DUP4 SUB DUP2 DUP7 DUP1 EXTCODESIZE ISZERO DUP1 ISZERO PUSH2 0x548 JUMPI PUSH1 0x0 DUP1 REVERT JUMPDEST POP GAS STATICCALL ISZERO DUP1 ISZERO PUSH2 0x55C JUMPI RETURNDATASIZE PUSH1 0x0 DUP1 RETURNDATACOPY RETURNDATASIZE PUSH1 0x0 REVERT JUMPDEST POP POP POP POP PUSH1 0x40 MLOAD RETURNDATASIZE PUSH1 0x1F NOT PUSH1 0x1F DUP3 ADD AND DUP3 ADD DUP1 PUSH1 0x40 MSTORE POP DUP2 ADD SWAP1 PUSH2 0x580 SWAP2 SWAP1 PUSH2 0x122C JUMP JUMPDEST POP SWAP3 SWAP12 POP POP POP POP POP POP POP POP POP POP POP POP JUMPDEST SWAP2 SWAP1 POP JUMP JUMPDEST PUSH1 0x0 DUP1 DUP1 DUP1 PUSH3 0xD89E7 NOT PUSH1 0x2 DUP10 SWAP1 SIGNEXTEND SGT PUSH2 0x5B3 JUMPI PUSH3 0xD89E7 NOT PUSH2 0x5B5 JUMP JUMPDEST DUP8 JUMPDEST SWAP8 POP PUSH3 0xD89E8 PUSH1 0x2 DUP9 SWAP1 SIGNEXTEND SLT PUSH2 0x5CE JUMPI PUSH3 0xD89E8 PUSH2 0x5D0 JUMP JUMPDEST DUP7 JUMPDEST PUSH1 0x0 SLOAD SWAP1 SWAP8 POP PUSH2 0x60B SWAP1 PUSH32 0x0 SWAP1 PUSH1 0x1 PUSH1 0x1 PUSH1 0xA0 SHL SUB AND DUP9 PUSH2 0xD2A JUMP JUMPDEST PUSH1 0x0 SLOAD PUSH2 0x643 SWAP1 PUSH32 0x0 SWAP1 PUSH1 0x1 PUSH1 0x1 PUSH1 0xA0 SHL SUB AND DUP8 PUSH2 0xD2A JUMP JUMPDEST PUSH1 0x40 DUP1 MLOAD PUSH2 0x160 DUP2 ADD DUP3 MSTORE PUSH1 0x1 PUSH1 0x1 PUSH1 0xA0 SHL SUB PUSH32 0x0 DUP2 AND DUP3 MSTORE PUSH32 0x0 DUP2 AND PUSH1 0x20 DUP4 ADD MSTORE PUSH3 0xFFFFFF PUSH32 0x0 AND DUP3 DUP5 ADD MSTORE PUSH1 0x2 DUP12 DUP2 SIGNEXTEND PUSH1 0x60 DUP5 ADD MSTORE DUP11 SWAP1 SIGNEXTEND PUSH1 0x80 DUP4 ADD MSTORE PUSH1 0xA0 DUP3 ADD DUP10 SWAP1 MSTORE PUSH1 0xC0 DUP3 ADD DUP9 SWAP1 MSTORE PUSH1 0x0 PUSH1 0xE0 DUP4 ADD DUP2 SWAP1 MSTORE PUSH2 0x100 DUP4 ADD DUP2 SWAP1 MSTORE ADDRESS PUSH2 0x120 DUP5 ADD MSTORE TIMESTAMP PUSH2 0x140 DUP5 ADD MSTORE SLOAD SWAP3 MLOAD PUSH32 0x8831645600000000000000000000000000000000000000000000000000000000 DUP2 MSTORE SWAP2 SWAP3 AND SWAP1 PUSH4 0x88316456 SWAP1 PUSH2 0x74A SWAP1 DUP5 SWAP1 PUSH1 0x4 ADD PUSH2 0x1467 JUMP JUMPDEST PUSH1 0x80 PUSH1 0x40 MLOAD DUP1 DUP4 SUB DUP2 PUSH1 0x0 DUP8 DUP1 EXTCODESIZE ISZERO DUP1 ISZERO PUSH2 0x764 JUMPI PUSH1 0x0 DUP1 REVERT JUMPDEST POP GAS CALL ISZERO DUP1 ISZERO PUSH2 0x778 JUMPI RETURNDATASIZE PUSH1 0x0 DUP1 RETURNDATACOPY RETURNDATASIZE PUSH1 0x0 REVERT JUMPDEST POP POP POP POP PUSH1 0x40 MLOAD RETURNDATASIZE PUSH1 0x1F NOT PUSH1 0x1F DUP3 ADD AND DUP3 ADD DUP1 PUSH1 0x40 MSTORE POP DUP2 ADD SWAP1 PUSH2 0x79C SWAP2 SWAP1 PUSH2 0x11AB JUMP JUMPDEST SWAP3 SWAP8 POP SWAP1 SWAP6 POP SWAP4 POP SWAP2 POP PUSH2 0x7B0 CALLER DUP7 PUSH2 0x9ED JUMP JUMPDEST DUP7 DUP4 LT ISZERO PUSH2 0x821 JUMPI PUSH1 0x0 DUP1 SLOAD PUSH2 0x7F1 SWAP2 PUSH32 0x0 SWAP2 PUSH1 0x1 PUSH1 0x1 PUSH1 0xA0 SHL SUB AND SWAP1 PUSH2 0xD2A JUMP JUMPDEST DUP3 DUP8 SUB PUSH2 0x81F PUSH32 0x0 CALLER DUP4 PUSH2 0xEAC JUMP JUMPDEST POP JUMPDEST DUP6 DUP3 LT ISZERO PUSH2 0x892 JUMPI PUSH1 0x0 DUP1 SLOAD PUSH2 0x862 SWAP2 PUSH32 0x0 SWAP2 PUSH1 0x1 PUSH1 0x1 PUSH1 0xA0 SHL SUB AND SWAP1 PUSH2 0xD2A JUMP JUMPDEST DUP2 DUP7 SUB PUSH2 0x890 PUSH32 0x0 CALLER DUP4 PUSH2 0xEAC JUMP JUMPDEST POP JUMPDEST POP SWAP5 POP SWAP5 POP SWAP5 POP SWAP5 SWAP1 POP JUMP JUMPDEST PUSH1 0x1 PUSH1 0x20 DUP2 SWAP1 MSTORE PUSH1 0x0 SWAP2 DUP3 MSTORE PUSH1 0x40 SWAP1 SWAP2 KECCAK256 DUP1 SLOAD SWAP2 DUP2 ADD SLOAD PUSH1 0x2 DUP3 ADD SLOAD PUSH1 0x3 SWAP1 SWAP3 ADD SLOAD PUSH1 0x1 PUSH1 0x1 PUSH1 0xA0 SHL SUB SWAP4 DUP5 AND SWAP4 PUSH1 0x1 PUSH1 0x1 PUSH1 0x80 SHL SUB SWAP1 SWAP3 AND SWAP3 DUP3 AND SWAP2 AND DUP5 JUMP JUMPDEST PUSH1 0x0 SLOAD PUSH1 0x1 PUSH1 0x1 PUSH1 0xA0 SHL SUB AND DUP2 JUMP JUMPDEST PUSH32 0x0 DUP2 JUMP JUMPDEST PUSH1 0x40 DUP1 MLOAD PUSH1 0xA0 DUP2 ADD DUP3 MSTORE PUSH1 0x2 SLOAD DUP2 MSTORE PUSH1 0x1 PUSH1 0x1 PUSH1 0x80 SHL SUB DUP4 AND PUSH1 0x20 DUP3 ADD MSTORE PUSH1 0x0 DUP2 DUP4 ADD DUP2 SWAP1 MSTORE PUSH1 0x60 DUP3 ADD DUP2 SWAP1 MSTORE TIMESTAMP PUSH1 0x80 DUP4 ADD MSTORE DUP1 SLOAD SWAP3 MLOAD PUSH32 0xC49CCBE00000000000000000000000000000000000000000000000000000000 DUP2 MSTORE SWAP1 SWAP3 DUP4 SWAP3 SWAP2 PUSH1 0x1 PUSH1 0x1 PUSH1 0xA0 SHL SUB SWAP1 SWAP2 AND SWAP1 PUSH4 0xC49CCBE SWAP1 PUSH2 0x991 SWAP1 DUP5 SWAP1 PUSH1 0x4 ADD PUSH2 0x13E0 JUMP JUMPDEST PUSH1 0x40 DUP1 MLOAD DUP1 DUP4 SUB DUP2 PUSH1 0x0 DUP8 DUP1 EXTCODESIZE ISZERO DUP1 ISZERO PUSH2 0x9AA JUMPI PUSH1 0x0 DUP1 REVERT JUMPDEST POP GAS CALL ISZERO DUP1 ISZERO PUSH2 0x9BE JUMPI RETURNDATASIZE PUSH1 0x0 DUP1 RETURNDATACOPY RETURNDATASIZE PUSH1 0x0 REVERT JUMPDEST POP POP POP POP PUSH1 0x40 MLOAD RETURNDATASIZE PUSH1 0x1F NOT PUSH1 0x1F DUP3 ADD AND DUP3 ADD DUP1 PUSH1 0x40 MSTORE POP DUP2 ADD SWAP1 PUSH2 0x9E2 SWAP2 SWAP1 PUSH2 0x1209 JUMP JUMPDEST SWAP1 SWAP6 SWAP1 SWAP5 POP SWAP3 POP POP POP JUMP JUMPDEST PUSH1 0x0 DUP1 SLOAD PUSH1 0x40 MLOAD PUSH4 0x133F7571 PUSH1 0xE3 SHL DUP2 MSTORE DUP3 SWAP2 DUP3 SWAP2 PUSH1 0x1 PUSH1 0x1 PUSH1 0xA0 SHL SUB SWAP1 SWAP2 AND SWAP1 PUSH4 0x99FBAB88 SWAP1 PUSH2 0xA22 SWAP1 DUP8 SWAP1 PUSH1 0x4 ADD PUSH2 0x155A JUMP JUMPDEST PUSH2 0x180 PUSH1 0x40 MLOAD DUP1 DUP4 SUB DUP2 DUP7 DUP1 EXTCODESIZE ISZERO DUP1 ISZERO PUSH2 0xA3B JUMPI PUSH1 0x0 DUP1 REVERT JUMPDEST POP GAS STATICCALL ISZERO DUP1 ISZERO PUSH2 0xA4F JUMPI RETURNDATASIZE PUSH1 0x0 DUP1 RETURNDATACOPY RETURNDATASIZE PUSH1 0x0 REVERT JUMPDEST POP POP POP POP PUSH1 0x40 MLOAD RETURNDATASIZE PUSH1 0x1F NOT PUSH1 0x1F DUP3 ADD AND DUP3 ADD DUP1 PUSH1 0x40 MSTORE POP DUP2 ADD SWAP1 PUSH2 0xA73 SWAP2 SWAP1 PUSH2 0x122C JUMP JUMPDEST POP POP POP POP SWAP8 POP POP POP POP SWAP5 POP SWAP5 POP POP POP PUSH1 0x40 MLOAD DUP1 PUSH1 0x80 ADD PUSH1 0x40 MSTORE DUP1 DUP7 PUSH1 0x1 PUSH1 0x1 PUSH1 0xA0 SHL SUB AND DUP2 MSTORE PUSH1 0x20 ADD DUP3 PUSH1 0x1 PUSH1 0x1 PUSH1 0x80 SHL SUB AND DUP2 MSTORE PUSH1 0x20 ADD DUP5 PUSH1 0x1 PUSH1 0x1 PUSH1 0xA0 SHL SUB AND DUP2 MSTORE PUSH1 0x20 ADD DUP4 PUSH1 0x1 PUSH1 0x1 PUSH1 0xA0 SHL SUB AND DUP2 MSTORE POP PUSH1 0x1 PUSH1 0x0 DUP7 DUP2 MSTORE PUSH1 0x20 ADD SWAP1 DUP2 MSTORE PUSH1 0x20 ADD PUSH1 0x0 KECCAK256 PUSH1 0x0 DUP3 ADD MLOAD DUP2 PUSH1 0x0 ADD PUSH1 0x0 PUSH2 0x100 EXP DUP2 SLOAD DUP2 PUSH1 0x1 PUSH1 0x1 PUSH1 0xA0 SHL SUB MUL NOT AND SWAP1 DUP4 PUSH1 0x1 PUSH1 0x1 PUSH1 0xA0 SHL SUB AND MUL OR SWAP1 SSTORE POP PUSH1 0x20 DUP3 ADD MLOAD DUP2 PUSH1 0x1 ADD PUSH1 0x0 PUSH2 0x100 EXP DUP2 SLOAD DUP2 PUSH1 0x1 PUSH1 0x1 PUSH1 0x80 SHL SUB MUL NOT AND SWAP1 DUP4 PUSH1 0x1 PUSH1 0x1 PUSH1 0x80 SHL SUB AND MUL OR SWAP1 SSTORE POP PUSH1 0x40 DUP3 ADD MLOAD DUP2 PUSH1 0x2 ADD PUSH1 0x0 PUSH2 0x100 EXP DUP2 SLOAD DUP2 PUSH1 0x1 PUSH1 0x1 PUSH1 0xA0 SHL SUB MUL NOT AND SWAP1 DUP4 PUSH1 0x1 PUSH1 0x1 PUSH1 0xA0 SHL SUB AND MUL OR SWAP1 SSTORE POP PUSH1 0x60 DUP3 ADD MLOAD DUP2 PUSH1 0x3 ADD PUSH1 0x0 PUSH2 0x100 EXP DUP2 SLOAD DUP2 PUSH1 0x1 PUSH1 0x1 PUSH1 0xA0 SHL SUB MUL NOT AND SWAP1 DUP4 PUSH1 0x1 PUSH1 0x1 PUSH1 0xA0 SHL SUB AND MUL OR SWAP1 SSTORE POP SWAP1 POP POP DUP4 PUSH1 0x2 DUP2 SWAP1 SSTORE POP POP POP POP POP POP JUMP JUMPDEST PUSH1 0x40 DUP1 MLOAD PUSH1 0x1 PUSH1 0x1 PUSH1 0xA0 SHL SUB DUP6 DUP2 AND PUSH1 0x24 DUP4 ADD MSTORE DUP5 DUP2 AND PUSH1 0x44 DUP4 ADD MSTORE PUSH1 0x64 DUP1 DUP4 ADD DUP6 SWAP1 MSTORE DUP4 MLOAD DUP1 DUP5 SUB SWAP1 SWAP2 ADD DUP2 MSTORE PUSH1 0x84 SWAP1 SWAP3 ADD DUP4 MSTORE PUSH1 0x20 DUP3 ADD DUP1 MLOAD PUSH1 0x1 PUSH1 0x1 PUSH1 0xE0 SHL SUB AND PUSH32 0x23B872DD00000000000000000000000000000000000000000000000000000000 OR DUP2 MSTORE SWAP3 MLOAD DUP3 MLOAD PUSH1 0x0 SWAP5 DUP6 SWAP5 SWAP4 DUP11 AND SWAP4 SWAP3 SWAP2 DUP3 SWAP2 SWAP1 DUP1 DUP4 DUP4 JUMPDEST PUSH1 0x20 DUP4 LT PUSH2 0xC3C JUMPI DUP1 MLOAD DUP3 MSTORE PUSH1 0x1F NOT SWAP1 SWAP3 ADD SWAP2 PUSH1 0x20 SWAP2 DUP3 ADD SWAP2 ADD PUSH2 0xC1D JUMP JUMPDEST PUSH1 0x1 DUP4 PUSH1 0x20 SUB PUSH2 0x100 EXP SUB DUP1 NOT DUP3 MLOAD AND DUP2 DUP5 MLOAD AND DUP1 DUP3 OR DUP6 MSTORE POP POP POP POP POP POP SWAP1 POP ADD SWAP2 POP POP PUSH1 0x0 PUSH1 0x40 MLOAD DUP1 DUP4 SUB DUP2 PUSH1 0x0 DUP7 GAS CALL SWAP2 POP POP RETURNDATASIZE DUP1 PUSH1 0x0 DUP2 EQ PUSH2 0xC9E JUMPI PUSH1 0x40 MLOAD SWAP2 POP PUSH1 0x1F NOT PUSH1 0x3F RETURNDATASIZE ADD AND DUP3 ADD PUSH1 0x40 MSTORE RETURNDATASIZE DUP3 MSTORE RETURNDATASIZE PUSH1 0x0 PUSH1 0x20 DUP5 ADD RETURNDATACOPY PUSH2 0xCA3 JUMP JUMPDEST PUSH1 0x60 SWAP2 POP JUMPDEST POP SWAP2 POP SWAP2 POP DUP2 DUP1 ISZERO PUSH2 0xCD1 JUMPI POP DUP1 MLOAD ISZERO DUP1 PUSH2 0xCD1 JUMPI POP DUP1 DUP1 PUSH1 0x20 ADD SWAP1 MLOAD PUSH1 0x20 DUP2 LT ISZERO PUSH2 0xCCE JUMPI PUSH1 0x0 DUP1 REVERT JUMPDEST POP MLOAD JUMPDEST PUSH2 0xD22 JUMPI PUSH1 0x40 DUP1 MLOAD PUSH3 0x461BCD PUSH1 0xE5 SHL DUP2 MSTORE PUSH1 0x20 PUSH1 0x4 DUP3 ADD MSTORE PUSH1 0x3 PUSH1 0x24 DUP3 ADD MSTORE PUSH32 0x5354460000000000000000000000000000000000000000000000000000000000 PUSH1 0x44 DUP3 ADD MSTORE SWAP1 MLOAD SWAP1 DUP2 SWAP1 SUB PUSH1 0x64 ADD SWAP1 REVERT JUMPDEST POP POP POP POP POP POP JUMP JUMPDEST PUSH1 0x40 DUP1 MLOAD PUSH1 0x1 PUSH1 0x1 PUSH1 0xA0 SHL SUB DUP5 DUP2 AND PUSH1 0x24 DUP4 ADD MSTORE PUSH1 0x44 DUP1 DUP4 ADD DUP6 SWAP1 MSTORE DUP4 MLOAD DUP1 DUP5 SUB SWAP1 SWAP2 ADD DUP2 MSTORE PUSH1 0x64 SWAP1 SWAP3 ADD DUP4 MSTORE PUSH1 0x20 DUP3 ADD DUP1 MLOAD PUSH1 0x1 PUSH1 0x1 PUSH1 0xE0 SHL SUB AND PUSH32 0x95EA7B300000000000000000000000000000000000000000000000000000000 OR DUP2 MSTORE SWAP3 MLOAD DUP3 MLOAD PUSH1 0x0 SWAP5 DUP6 SWAP5 SWAP4 DUP10 AND SWAP4 SWAP3 SWAP2 DUP3 SWAP2 SWAP1 DUP1 DUP4 DUP4 JUMPDEST PUSH1 0x20 DUP4 LT PUSH2 0xDBF JUMPI DUP1 MLOAD DUP3 MSTORE PUSH1 0x1F NOT SWAP1 SWAP3 ADD SWAP2 PUSH1 0x20 SWAP2 DUP3 ADD SWAP2 ADD PUSH2 0xDA0 JUMP JUMPDEST PUSH1 0x1 DUP4 PUSH1 0x20 SUB PUSH2 0x100 EXP SUB DUP1 NOT DUP3 MLOAD AND DUP2 DUP5 MLOAD AND DUP1 DUP3 OR DUP6 MSTORE POP POP POP POP POP POP SWAP1 POP ADD SWAP2 POP POP PUSH1 0x0 PUSH1 0x40 MLOAD DUP1 DUP4 SUB DUP2 PUSH1 0x0 DUP7 GAS CALL SWAP2 POP POP RETURNDATASIZE DUP1 PUSH1 0x0 DUP2 EQ PUSH2 0xE21 JUMPI PUSH1 0x40 MLOAD SWAP2 POP PUSH1 0x1F NOT PUSH1 0x3F RETURNDATASIZE ADD AND DUP3 ADD PUSH1 0x40 MSTORE RETURNDATASIZE DUP3 MSTORE RETURNDATASIZE PUSH1 0x0 PUSH1 0x20 DUP5 ADD RETURNDATACOPY PUSH2 0xE26 JUMP JUMPDEST PUSH1 0x60 SWAP2 POP JUMPDEST POP SWAP2 POP SWAP2 POP DUP2 DUP1 ISZERO PUSH2 0xE54 JUMPI POP DUP1 MLOAD ISZERO DUP1 PUSH2 0xE54 JUMPI POP DUP1 DUP1 PUSH1 0x20 ADD SWAP1 MLOAD PUSH1 0x20 DUP2 LT ISZERO PUSH2 0xE51 JUMPI PUSH1 0x0 DUP1 REVERT JUMPDEST POP MLOAD JUMPDEST PUSH2 0xEA5 JUMPI PUSH1 0x40 DUP1 MLOAD PUSH3 0x461BCD PUSH1 0xE5 SHL DUP2 MSTORE PUSH1 0x20 PUSH1 0x4 DUP3 ADD MSTORE PUSH1 0x2 PUSH1 0x24 DUP3 ADD MSTORE PUSH32 0x5341000000000000000000000000000000000000000000000000000000000000 PUSH1 0x44 DUP3 ADD MSTORE SWAP1 MLOAD SWAP1 DUP2 SWAP1 SUB PUSH1 0x64 ADD SWAP1 REVERT JUMPDEST POP POP POP POP POP JUMP JUMPDEST PUSH1 0x40 DUP1 MLOAD PUSH1 0x1 PUSH1 0x1 PUSH1 0xA0 SHL SUB DUP5 DUP2 AND PUSH1 0x24 DUP4 ADD MSTORE PUSH1 0x44 DUP1 DUP4 ADD DUP6 SWAP1 MSTORE DUP4 MLOAD DUP1 DUP5 SUB SWAP1 SWAP2 ADD DUP2 MSTORE PUSH1 0x64 SWAP1 SWAP3 ADD DUP4 MSTORE PUSH1 0x20 DUP3 ADD DUP1 MLOAD PUSH1 0x1 PUSH1 0x1 PUSH1 0xE0 SHL SUB AND PUSH32 0xA9059CBB00000000000000000000000000000000000000000000000000000000 OR DUP2 MSTORE SWAP3 MLOAD DUP3 MLOAD PUSH1 0x0 SWAP5 DUP6 SWAP5 SWAP4 DUP10 AND SWAP4 SWAP3 SWAP2 DUP3 SWAP2 SWAP1 DUP1 DUP4 DUP4 JUMPDEST PUSH1 0x20 DUP4 LT PUSH2 0xF41 JUMPI DUP1 MLOAD DUP3 MSTORE PUSH1 0x1F NOT SWAP1 SWAP3 ADD SWAP2 PUSH1 0x20 SWAP2 DUP3 ADD SWAP2 ADD PUSH2 0xF22 JUMP JUMPDEST PUSH1 0x1 DUP4 PUSH1 0x20 SUB PUSH2 0x100 EXP SUB DUP1 NOT DUP3 MLOAD AND DUP2 DUP5 MLOAD AND DUP1 DUP3 OR DUP6 MSTORE POP POP POP POP POP POP SWAP1 POP ADD SWAP2 POP POP PUSH1 0x0 PUSH1 0x40 MLOAD DUP1 DUP4 SUB DUP2 PUSH1 0x0 DUP7 GAS CALL SWAP2 POP POP RETURNDATASIZE DUP1 PUSH1 0x0 DUP2 EQ PUSH2 0xFA3 JUMPI PUSH1 0x40 MLOAD SWAP2 POP PUSH1 0x1F NOT PUSH1 0x3F RETURNDATASIZE ADD AND DUP3 ADD PUSH1 0x40 MSTORE RETURNDATASIZE DUP3 MSTORE RETURNDATASIZE PUSH1 0x0 PUSH1 0x20 DUP5 ADD RETURNDATACOPY PUSH2 0xFA8 JUMP JUMPDEST PUSH1 0x60 SWAP2 POP JUMPDEST POP SWAP2 POP SWAP2 POP DUP2 DUP1 ISZERO PUSH2 0xFD6 JUMPI POP DUP1 MLOAD ISZERO DUP1 PUSH2 0xFD6 JUMPI POP DUP1 DUP1 PUSH1 0x20 ADD SWAP1 MLOAD PUSH1 0x20 DUP2 LT ISZERO PUSH2 0xFD3 JUMPI PUSH1 0x0 DUP1 REVERT JUMPDEST POP MLOAD JUMPDEST PUSH2 0xEA5 JUMPI PUSH1 0x40 DUP1 MLOAD PUSH3 0x461BCD PUSH1 0xE5 SHL DUP2 MSTORE PUSH1 0x20 PUSH1 0x4 DUP3 ADD MSTORE PUSH1 0x2 PUSH1 0x24 DUP3 ADD MSTORE PUSH32 0x5354000000000000000000000000000000000000000000000000000000000000 PUSH1 0x44 DUP3 ADD MSTORE SWAP1 MLOAD SWAP1 DUP2 SWAP1 SUB PUSH1 0x64 ADD SWAP1 REVERT JUMPDEST DUP1 MLOAD PUSH2 0x590 DUP2 PUSH2 0x1595 JUMP JUMPDEST DUP1 MLOAD PUSH2 0x590 DUP2 PUSH2 0x15AD JUMP JUMPDEST DUP1 MLOAD PUSH2 0x590 DUP2 PUSH2 0x15BC JUMP JUMPDEST DUP1 MLOAD PUSH3 0xFFFFFF DUP2 AND DUP2 EQ PUSH2 0x590 JUMPI PUSH1 0x0 DUP1 REVERT JUMPDEST PUSH1 0x0 DUP1 PUSH1 0x0 DUP1 PUSH1 0x0 PUSH1 0x80 DUP7 DUP9 SUB SLT ISZERO PUSH2 0x1072 JUMPI DUP1 DUP2 REVERT JUMPDEST DUP6 CALLDATALOAD PUSH2 0x107D DUP2 PUSH2 0x1595 JUMP JUMPDEST SWAP5 POP PUSH1 0x20 DUP7 ADD CALLDATALOAD PUSH2 0x108D DUP2 PUSH2 0x1595 JUMP JUMPDEST SWAP4 POP PUSH1 0x40 DUP7 ADD CALLDATALOAD SWAP3 POP PUSH1 0x60 DUP7 ADD CALLDATALOAD PUSH8 0xFFFFFFFFFFFFFFFF DUP1 DUP3 GT ISZERO PUSH2 0x10B0 JUMPI DUP3 DUP4 REVERT JUMPDEST DUP2 DUP9 ADD SWAP2 POP DUP9 PUSH1 0x1F DUP4 ADD SLT PUSH2 0x10C3 JUMPI DUP3 DUP4 REVERT JUMPDEST DUP2 CALLDATALOAD DUP2 DUP2 GT ISZERO PUSH2 0x10D1 JUMPI DUP4 DUP5 REVERT JUMPDEST DUP10 PUSH1 0x20 DUP3 DUP6 ADD ADD GT ISZERO PUSH2 0x10E2 JUMPI DUP4 DUP5 REVERT JUMPDEST SWAP7 SWAP10 SWAP6 SWAP9 POP SWAP4 SWAP7 POP PUSH1 0x20 ADD SWAP5 SWAP4 SWAP3 POP POP POP JUMP JUMPDEST PUSH1 0x0 DUP1 PUSH1 0x0 DUP1 PUSH1 0x80 DUP6 DUP8 SUB SLT ISZERO PUSH2 0x110A JUMPI DUP4 DUP5 REVERT JUMPDEST DUP5 CALLDATALOAD PUSH2 0x1115 DUP2 PUSH2 0x15AD JUMP JUMPDEST SWAP4 POP PUSH1 0x20 DUP6 ADD CALLDATALOAD PUSH2 0x1125 DUP2 PUSH2 0x15AD JUMP JUMPDEST SWAP4 SWAP7 SWAP4 SWAP6 POP POP POP POP PUSH1 0x40 DUP3 ADD CALLDATALOAD SWAP2 PUSH1 0x60 ADD CALLDATALOAD SWAP1 JUMP JUMPDEST PUSH1 0x0 PUSH1 0x20 DUP3 DUP5 SUB SLT ISZERO PUSH2 0x114B JUMPI DUP1 DUP2 REVERT JUMPDEST DUP2 CALLDATALOAD PUSH2 0x1156 DUP2 PUSH2 0x15BC JUMP JUMPDEST SWAP4 SWAP3 POP POP POP JUMP JUMPDEST PUSH1 0x0 DUP1 PUSH1 0x0 PUSH1 0x60 DUP5 DUP7 SUB SLT ISZERO PUSH2 0x1171 JUMPI DUP3 DUP4 REVERT JUMPDEST DUP4 MLOAD PUSH2 0x117C DUP2 PUSH2 0x15BC JUMP JUMPDEST PUSH1 0x20 DUP6 ADD MLOAD PUSH1 0x40 SWAP1 SWAP6 ADD MLOAD SWAP1 SWAP7 SWAP5 SWAP6 POP SWAP4 SWAP3 POP POP POP JUMP JUMPDEST PUSH1 0x0 PUSH1 0x20 DUP3 DUP5 SUB SLT ISZERO PUSH2 0x11A4 JUMPI DUP1 DUP2 REVERT JUMPDEST POP CALLDATALOAD SWAP2 SWAP1 POP JUMP JUMPDEST PUSH1 0x0 DUP1 PUSH1 0x0 DUP1 PUSH1 0x80 DUP6 DUP8 SUB SLT ISZERO PUSH2 0x11C0 JUMPI DUP4 DUP5 REVERT JUMPDEST DUP5 MLOAD SWAP4 POP PUSH1 0x20 DUP6 ADD MLOAD PUSH2 0x11D2 DUP2 PUSH2 0x15BC JUMP JUMPDEST PUSH1 0x40 DUP7 ADD MLOAD PUSH1 0x60 SWAP1 SWAP7 ADD MLOAD SWAP5 SWAP8 SWAP1 SWAP7 POP SWAP3 POP POP POP JUMP JUMPDEST PUSH1 0x0 DUP1 PUSH1 0x40 DUP4 DUP6 SUB SLT ISZERO PUSH2 0x11FA JUMPI DUP2 DUP3 REVERT JUMPDEST POP POP DUP1 CALLDATALOAD SWAP3 PUSH1 0x20 SWAP1 SWAP2 ADD CALLDATALOAD SWAP2 POP JUMP JUMPDEST PUSH1 0x0 DUP1 PUSH1 0x40 DUP4 DUP6 SUB SLT ISZERO PUSH2 0x121B JUMPI DUP2 DUP3 REVERT JUMPDEST POP POP DUP1 MLOAD PUSH1 0x20 SWAP1 SWAP2 ADD MLOAD SWAP1 SWAP3 SWAP1 SWAP2 POP JUMP JUMPDEST PUSH1 0x0 DUP1 PUSH1 0x0 DUP1 PUSH1 0x0 DUP1 PUSH1 0x0 DUP1 PUSH1 0x0 DUP1 PUSH1 0x0 DUP1 PUSH2 0x180 DUP14 DUP16 SUB SLT ISZERO PUSH2 0x124E JUMPI DUP7 DUP8 REVERT JUMPDEST DUP13 MLOAD PUSH12 0xFFFFFFFFFFFFFFFFFFFFFFFF DUP2 AND DUP2 EQ PUSH2 0x1269 JUMPI DUP8 DUP9 REVERT JUMPDEST SWAP12 POP PUSH2 0x1277 PUSH1 0x20 DUP15 ADD PUSH2 0x1027 JUMP JUMPDEST SWAP11 POP PUSH2 0x1285 PUSH1 0x40 DUP15 ADD PUSH2 0x1027 JUMP JUMPDEST SWAP10 POP PUSH2 0x1293 PUSH1 0x60 DUP15 ADD PUSH2 0x1027 JUMP JUMPDEST SWAP9 POP PUSH2 0x12A1 PUSH1 0x80 DUP15 ADD PUSH2 0x1048 JUMP JUMPDEST SWAP8 POP PUSH2 0x12AF PUSH1 0xA0 DUP15 ADD PUSH2 0x1032 JUMP JUMPDEST SWAP7 POP PUSH2 0x12BD PUSH1 0xC0 DUP15 ADD PUSH2 0x1032 JUMP JUMPDEST SWAP6 POP PUSH2 0x12CB PUSH1 0xE0 DUP15 ADD PUSH2 0x103D JUMP JUMPDEST SWAP5 POP PUSH2 0x100 DUP14 ADD MLOAD SWAP4 POP PUSH2 0x120 DUP14 ADD MLOAD SWAP3 POP PUSH2 0x12EA PUSH2 0x140 DUP15 ADD PUSH2 0x103D JUMP JUMPDEST SWAP2 POP PUSH2 0x12F9 PUSH2 0x160 DUP15 ADD PUSH2 0x103D JUMP JUMPDEST SWAP1 POP SWAP3 SWAP6 SWAP9 SWAP12 POP SWAP3 SWAP6 SWAP9 SWAP12 POP SWAP3 SWAP6 SWAP9 SWAP12 JUMP JUMPDEST PUSH1 0x1 PUSH1 0x1 PUSH1 0xA0 SHL SUB AND SWAP1 MSTORE JUMP JUMPDEST PUSH1 0x2 SIGNEXTEND SWAP1 MSTORE JUMP JUMPDEST PUSH3 0xFFFFFF AND SWAP1 MSTORE JUMP JUMPDEST PUSH1 0x1 PUSH1 0x1 PUSH1 0xA0 SHL SUB SWAP2 SWAP1 SWAP2 AND DUP2 MSTORE PUSH1 0x20 ADD SWAP1 JUMP JUMPDEST PUSH1 0x1 PUSH1 0x1 PUSH1 0xA0 SHL SUB SWAP5 DUP6 AND DUP2 MSTORE PUSH1 0x1 PUSH1 0x1 PUSH1 0x80 SHL SUB SWAP4 SWAP1 SWAP4 AND PUSH1 0x20 DUP5 ADD MSTORE SWAP1 DUP4 AND PUSH1 0x40 DUP4 ADD MSTORE SWAP1 SWAP2 AND PUSH1 0x60 DUP3 ADD MSTORE PUSH1 0x80 ADD SWAP1 JUMP JUMPDEST PUSH32 0xFFFFFFFF00000000000000000000000000000000000000000000000000000000 SWAP2 SWAP1 SWAP2 AND DUP2 MSTORE PUSH1 0x20 ADD SWAP1 JUMP JUMPDEST DUP2 MLOAD DUP2 MSTORE PUSH1 0x20 DUP1 DUP4 ADD MLOAD PUSH1 0x1 PUSH1 0x1 PUSH1 0xA0 SHL SUB AND SWAP1 DUP3 ADD MSTORE PUSH1 0x40 DUP1 DUP4 ADD MLOAD PUSH1 0x1 PUSH1 0x1 PUSH1 0x80 SHL SUB SWAP1 DUP2 AND SWAP2 DUP4 ADD SWAP2 SWAP1 SWAP2 MSTORE PUSH1 0x60 SWAP3 DUP4 ADD MLOAD AND SWAP2 DUP2 ADD SWAP2 SWAP1 SWAP2 MSTORE PUSH1 0x80 ADD SWAP1 JUMP JUMPDEST PUSH1 0x0 PUSH1 0xA0 DUP3 ADD SWAP1 POP DUP3 MLOAD DUP3 MSTORE PUSH1 0x1 PUSH1 0x1 PUSH1 0x80 SHL SUB PUSH1 0x20 DUP5 ADD MLOAD AND PUSH1 0x20 DUP4 ADD MSTORE PUSH1 0x40 DUP4 ADD MLOAD PUSH1 0x40 DUP4 ADD MSTORE PUSH1 0x60 DUP4 ADD MLOAD PUSH1 0x60 DUP4 ADD MSTORE PUSH1 0x80 DUP4 ADD MLOAD PUSH1 0x80 DUP4 ADD MSTORE SWAP3 SWAP2 POP POP JUMP JUMPDEST PUSH1 0x0 PUSH1 0xC0 DUP3 ADD SWAP1 POP DUP3 MLOAD DUP3 MSTORE PUSH1 0x20 DUP4 ADD MLOAD PUSH1 0x20 DUP4 ADD MSTORE PUSH1 0x40 DUP4 ADD MLOAD PUSH1 0x40 DUP4 ADD MSTORE PUSH1 0x60 DUP4 ADD MLOAD PUSH1 0x60 DUP4 ADD MSTORE PUSH1 0x80 DUP4 ADD MLOAD PUSH1 0x80 DUP4 ADD MSTORE PUSH1 0xA0 DUP4 ADD MLOAD PUSH1 0xA0 DUP4 ADD MSTORE SWAP3 SWAP2 POP POP JUMP JUMPDEST PUSH1 0x0 PUSH2 0x160 DUP3 ADD SWAP1 POP PUSH2 0x147B DUP3 DUP5 MLOAD PUSH2 0x130B JUMP JUMPDEST PUSH1 0x20 DUP4 ADD MLOAD PUSH2 0x148D PUSH1 0x20 DUP5 ADD DUP3 PUSH2 0x130B JUMP JUMPDEST POP PUSH1 0x40 DUP4 ADD MLOAD PUSH2 0x14A0 PUSH1 0x40 DUP5 ADD DUP3 PUSH2 0x131F JUMP JUMPDEST POP PUSH1 0x60 DUP4 ADD MLOAD PUSH2 0x14B3 PUSH1 0x60 DUP5 ADD DUP3 PUSH2 0x1318 JUMP JUMPDEST POP PUSH1 0x80 DUP4 ADD MLOAD PUSH2 0x14C6 PUSH1 0x80 DUP5 ADD DUP3 PUSH2 0x1318 JUMP JUMPDEST POP PUSH1 0xA0 DUP4 ADD MLOAD PUSH1 0xA0 DUP4 ADD MSTORE PUSH1 0xC0 DUP4 ADD MLOAD PUSH1 0xC0 DUP4 ADD MSTORE PUSH1 0xE0 DUP4 ADD MLOAD PUSH1 0xE0 DUP4 ADD MSTORE PUSH2 0x100 DUP1 DUP5 ADD MLOAD DUP2 DUP5 ADD MSTORE POP PUSH2 0x120 DUP1 DUP5 ADD MLOAD PUSH2 0x1504 DUP3 DUP6 ADD DUP3 PUSH2 0x130B JUMP JUMPDEST POP POP PUSH2 0x140 SWAP3 DUP4 ADD MLOAD SWAP2 SWAP1 SWAP3 ADD MSTORE SWAP1 JUMP JUMPDEST PUSH1 0x1 PUSH1 0x1 PUSH1 0x80 SHL SUB SWAP2 SWAP1 SWAP2 AND DUP2 MSTORE PUSH1 0x20 ADD SWAP1 JUMP JUMPDEST PUSH1 0x1 PUSH1 0x1 PUSH1 0x80 SHL SUB SWAP4 SWAP1 SWAP4 AND DUP4 MSTORE PUSH1 0x20 DUP4 ADD SWAP2 SWAP1 SWAP2 MSTORE PUSH1 0x40 DUP3 ADD MSTORE PUSH1 0x60 ADD SWAP1 JUMP JUMPDEST PUSH3 0xFFFFFF SWAP2 SWAP1 SWAP2 AND DUP2 MSTORE PUSH1 0x20 ADD SWAP1 JUMP JUMPDEST SWAP1 DUP2 MSTORE PUSH1 0x20 ADD SWAP1 JUMP JUMPDEST SWAP4 DUP5 MSTORE PUSH1 0x1 PUSH1 0x1 PUSH1 0x80 SHL SUB SWAP3 SWAP1 SWAP3 AND PUSH1 0x20 DUP5 ADD MSTORE PUSH1 0x40 DUP4 ADD MSTORE PUSH1 0x60 DUP3 ADD MSTORE PUSH1 0x80 ADD SWAP1 JUMP JUMPDEST SWAP2 DUP3 MSTORE PUSH1 0x20 DUP3 ADD MSTORE PUSH1 0x40 ADD SWAP1 JUMP JUMPDEST PUSH1 0x1 PUSH1 0x1 PUSH1 0xA0 SHL SUB DUP2 AND DUP2 EQ PUSH2 0x15AA JUMPI PUSH1 0x0 DUP1 REVERT JUMPDEST POP JUMP JUMPDEST DUP1 PUSH1 0x2 SIGNEXTEND DUP2 EQ PUSH2 0x15AA JUMPI PUSH1 0x0 DUP1 REVERT JUMPDEST PUSH1 0x1 PUSH1 0x1 PUSH1 0x80 SHL SUB DUP2 AND DUP2 EQ PUSH2 0x15AA JUMPI PUSH1 0x0 DUP1 REVERT INVALID LOG2 PUSH5 0x6970667358 0x22 SLT KECCAK256 SMOD PC 0xBC DUP2 0x5D DUP4 0xB1 0xD9 0xDC NUMBER 0xF 0xCF 0xEF SSTORE PUSH19 0xB0D0BBEC50D11642BD148E814D8BB2A7676473 PUSH16 0x6C634300070600330000000000000000 "
        },
        "methodIdentifiers": {
          "collectAllFees()": "686f2c90",
          "decreaseLiquidity(uint128)": "da406491",
          "deposits(uint256)": "b02c43d0",
          "getLiquidity(uint256)": "951583c3",
          "increaseLiquidity(uint256,uint256)": "696f9c81",
          "mintNewPosition(int24,int24,uint256,uint256)": "a588540c",
          "nonfungiblePositionManager()": "b44a2722",
          "onERC721Received(address,address,uint256,bytes)": "150b7a02",
          "poolFee()": "089fe6aa",
          "token0()": "0dfe1681",
          "token1()": "d21220a7",
          "tokenId()": "17d70f7c"
        }
      }
    }
  }
}